{
  "contractName": "ImageResizer",
  "abi": [
    {
      "anonymous": false,
      "inputs": [
        {
          "indexed": true,
          "internalType": "uint256",
          "name": "id",
          "type": "uint256"
        },
        {
          "indexed": false,
          "internalType": "string",
          "name": "ipfsHash",
          "type": "string"
        },
        {
          "indexed": true,
          "internalType": "address",
          "name": "owner",
          "type": "address"
        }
      ],
      "name": "ImageResized",
      "type": "event"
    },
    {
      "inputs": [
        {
          "internalType": "uint256",
          "name": "",
          "type": "uint256"
        }
      ],
      "name": "images",
      "outputs": [
        {
          "internalType": "string",
          "name": "ipfsHash",
          "type": "string"
        },
        {
          "internalType": "uint256",
          "name": "width",
          "type": "uint256"
        },
        {
          "internalType": "uint256",
          "name": "height",
          "type": "uint256"
        },
        {
          "internalType": "uint256",
          "name": "timestamp",
          "type": "uint256"
        },
        {
          "internalType": "address",
          "name": "owner",
          "type": "address"
        },
        {
          "internalType": "string",
          "name": "originalImageHash",
          "type": "string"
        }
      ],
      "stateMutability": "view",
      "type": "function"
    },
    {
      "inputs": [
        {
          "internalType": "address",
          "name": "",
          "type": "address"
        },
        {
          "internalType": "uint256",
          "name": "",
          "type": "uint256"
        }
      ],
      "name": "userImages",
      "outputs": [
        {
          "internalType": "uint256",
          "name": "",
          "type": "uint256"
        }
      ],
      "stateMutability": "view",
      "type": "function"
    },
    {
      "inputs": [
        {
          "internalType": "string",
          "name": "_ipfsHash",
          "type": "string"
        },
        {
          "internalType": "uint256",
          "name": "_width",
          "type": "uint256"
        },
        {
          "internalType": "uint256",
          "name": "_height",
          "type": "uint256"
        },
        {
          "internalType": "string",
          "name": "_originalImageHash",
          "type": "string"
        }
      ],
      "name": "registerResizedImage",
      "outputs": [
        {
          "internalType": "uint256",
          "name": "",
          "type": "uint256"
        }
      ],
      "stateMutability": "nonpayable",
      "type": "function"
    },
    {
      "inputs": [
        {
          "internalType": "uint256",
          "name": "_id",
          "type": "uint256"
        }
      ],
      "name": "getImage",
      "outputs": [
        {
          "internalType": "string",
          "name": "ipfsHash",
          "type": "string"
        },
        {
          "internalType": "uint256",
          "name": "width",
          "type": "uint256"
        },
        {
          "internalType": "uint256",
          "name": "height",
          "type": "uint256"
        },
        {
          "internalType": "uint256",
          "name": "timestamp",
          "type": "uint256"
        },
        {
          "internalType": "address",
          "name": "owner",
          "type": "address"
        },
        {
          "internalType": "string",
          "name": "originalImageHash",
          "type": "string"
        }
      ],
      "stateMutability": "view",
      "type": "function"
    },
    {
      "inputs": [],
      "name": "getImageCount",
      "outputs": [
        {
          "internalType": "uint256",
          "name": "",
          "type": "uint256"
        }
      ],
      "stateMutability": "view",
      "type": "function"
    },
    {
      "inputs": [
        {
          "internalType": "address",
          "name": "_user",
          "type": "address"
        }
      ],
      "name": "getUserImages",
      "outputs": [
        {
          "internalType": "uint256[]",
          "name": "",
          "type": "uint256[]"
        }
      ],
      "stateMutability": "view",
      "type": "function"
    },
    {
      "inputs": [
        {
          "internalType": "address",
          "name": "_user",
          "type": "address"
        }
      ],
      "name": "getUserImageCount",
      "outputs": [
        {
          "internalType": "uint256",
          "name": "",
          "type": "uint256"
        }
      ],
      "stateMutability": "view",
      "type": "function"
    }
  ],
  "bytecode": "0x608060405234801561001057600080fd5b50610a51806100206000396000f3fe608060405234801561001057600080fd5b506004361061007d5760003560e01c80633c37bd4f1161005b5780633c37bd4f146100fa578063848564821461010d578063eb6bbd7814610120578063f97c44a91461014057600080fd5b80632607aafa146100825780632ba36e05146100b0578063390648b7146100e7575b600080fd5b61009561009036600461061d565b610148565b6040516100a79695949392919061067c565b60405180910390f35b6100d96100be3660046106ee565b6001600160a01b031660009081526001602052604090205490565b6040519081526020016100a7565b6100d96100f53660046107b3565b6102fd565b6100d961010836600461082a565b61042e565b61009561011b36600461061d565b61045f565b61013361012e3660046106ee565b6105b1565b6040516100a79190610854565b6002546100d9565b6060600080600080606060008060008981526020019081526020016000206040518060c001604052908160008201805461018190610898565b80601f01602080910402602001604051908101604052809291908181526020018280546101ad90610898565b80156101fa5780601f106101cf576101008083540402835291602001916101fa565b820191906000526020600020905b8154815290600101906020018083116101dd57829003601f168201915b505050918352505060018201546020820152600282015460408201526003820154606082015260048201546001600160a01b0316608082015260058201805460a09092019161024890610898565b80601f016020809104026020016040519081016040528092919081815260200182805461027490610898565b80156102c15780601f10610296576101008083540402835291602001916102c1565b820191906000526020600020905b8154815290600101906020018083116102a457829003601f168201915b5050509190925250508151602083015160408401516060850151608086015160a090960151939e929d50909b5099509297509550909350505050565b600280546000918261030e836108d2565b90915550506040805160c081018252868152602080820187905281830186905242606083015233608083015260a08201859052600254600090815290819052919091208151819061035f9082610948565b5060208201516001820155604082015160028201556060820151600382015560808201516004820180546001600160a01b0319166001600160a01b0390921691909117905560a082015160058201906103b89082610948565b50503360008181526001602081815260408084206002805482549586018355918652929094209092019290925590549051919250907f7c3c094be5be21f0f468c1447bf697334b388a3389ebad4915f5c29b530a2ef89061041a908990610a08565b60405180910390a350600254949350505050565b6001602052816000526040600020818154811061044a57600080fd5b90600052602060002001600091509150505481565b60006020819052908152604090208054819061047a90610898565b80601f01602080910402602001604051908101604052809291908181526020018280546104a690610898565b80156104f35780601f106104c8576101008083540402835291602001916104f3565b820191906000526020600020905b8154815290600101906020018083116104d657829003601f168201915b5050506001840154600285015460038601546004870154600588018054979894979396509194506001600160a01b0316929161052e90610898565b80601f016020809104026020016040519081016040528092919081815260200182805461055a90610898565b80156105a75780601f1061057c576101008083540402835291602001916105a7565b820191906000526020600020905b81548152906001019060200180831161058a57829003601f168201915b5050505050905086565b6001600160a01b03811660009081526001602090815260409182902080548351818402810184019094528084526060939283018282801561061157602002820191906000526020600020905b8154815260200190600101908083116105fd575b50505050509050919050565b60006020828403121561062f57600080fd5b5035919050565b6000815180845260005b8181101561065c57602081850181015186830182015201610640565b506000602082860101526020601f19601f83011685010191505092915050565b60c08152600061068f60c0830189610636565b6020830188905260408301879052606083018690526001600160a01b038516608084015282810360a08401526106c58185610636565b9998505050505050505050565b80356001600160a01b03811681146106e957600080fd5b919050565b60006020828403121561070057600080fd5b610709826106d2565b9392505050565b634e487b7160e01b600052604160045260246000fd5b600082601f83011261073757600080fd5b813567ffffffffffffffff8082111561075257610752610710565b604051601f8301601f19908116603f0116810190828211818310171561077a5761077a610710565b8160405283815286602085880101111561079357600080fd5b836020870160208301376000602085830101528094505050505092915050565b600080600080608085870312156107c957600080fd5b843567ffffffffffffffff808211156107e157600080fd5b6107ed88838901610726565b95506020870135945060408701359350606087013591508082111561081157600080fd5b5061081e87828801610726565b91505092959194509250565b6000806040838503121561083d57600080fd5b610846836106d2565b946020939093013593505050565b6020808252825182820181905260009190848201906040850190845b8181101561088c57835183529284019291840191600101610870565b50909695505050505050565b600181811c908216806108ac57607f821691505b6020821081036108cc57634e487b7160e01b600052602260045260246000fd5b50919050565b6000600182016108f257634e487b7160e01b600052601160045260246000fd5b5060010190565b601f82111561094357600081815260208120601f850160051c810160208610156109205750805b601f850160051c820191505b8181101561093f5782815560010161092c565b5050505b505050565b815167ffffffffffffffff81111561096257610962610710565b610976816109708454610898565b846108f9565b602080601f8311600181146109ab57600084156109935750858301515b600019600386901b1c1916600185901b17855561093f565b600085815260208120601f198616915b828110156109da578886015182559484019460019091019084016109bb565b50858210156109f85787850151600019600388901b60f8161c191681555b5050505050600190811b01905550565b602081526000610709602083018461063656fea26469706673582212202b736f62ef859d7bef9b908e2e7adb18862741d41ac30d5a24b3a93b316cecbe64736f6c63430008110033",
  "immutableReferences": {},
  "source": "// SPDX-License-Identifier: MIT\r\npragma solidity ^0.8.0;\r\n\r\ncontract ImageResizer {\r\n    // Structure to store image data\r\n    struct ResizedImage {\r\n        string ipfsHash;\r\n        uint256 width;\r\n        uint256 height;\r\n        uint256 timestamp;\r\n        address owner;\r\n        string originalImageHash;  // Optional: Store hash of original image\r\n    }\r\n    \r\n    // Mapping from image ID to image data\r\n    mapping(uint256 => ResizedImage) public images;\r\n    \r\n    // Mapping from user address to their images\r\n    mapping(address => uint256[]) public userImages;\r\n    \r\n    // Counter for image IDs\r\n    uint256 private imageCount;\r\n    \r\n    // Events\r\n    event ImageResized(uint256 indexed id, string ipfsHash, address indexed owner);\r\n    \r\n    // Register a new resized image\r\n    function registerResizedImage(\r\n        string memory _ipfsHash,\r\n        uint256 _width,\r\n        uint256 _height,\r\n        string memory _originalImageHash\r\n    ) public returns (uint256) {\r\n        // Increment image count\r\n        imageCount++;\r\n        \r\n        // Store image data\r\n        images[imageCount] = ResizedImage({\r\n            ipfsHash: _ipfsHash,\r\n            width: _width,\r\n            height: _height,\r\n            timestamp: block.timestamp,\r\n            owner: msg.sender,\r\n            originalImageHash: _originalImageHash\r\n        });\r\n        \r\n        // Add image ID to user's images\r\n        userImages[msg.sender].push(imageCount);\r\n        \r\n        // Emit event\r\n        emit ImageResized(imageCount, _ipfsHash, msg.sender);\r\n        \r\n        return imageCount;\r\n    }\r\n    \r\n    // Get image details by ID\r\n    function getImage(uint256 _id) public view returns (\r\n        string memory ipfsHash,\r\n        uint256 width,\r\n        uint256 height,\r\n        uint256 timestamp,\r\n        address owner,\r\n        string memory originalImageHash\r\n    ) {\r\n        ResizedImage memory img = images[_id];\r\n        return (\r\n            img.ipfsHash,\r\n            img.width,\r\n            img.height,\r\n            img.timestamp,\r\n            img.owner,\r\n            img.originalImageHash\r\n        );\r\n    }\r\n    \r\n    // Get total number of images\r\n    function getImageCount() public view returns (uint256) {\r\n        return imageCount;\r\n    }\r\n    \r\n    // Get all images owned by a user\r\n    function getUserImages(address _user) public view returns (uint256[] memory) {\r\n        return userImages[_user];\r\n    }\r\n    \r\n    // Get user's image count\r\n    function getUserImageCount(address _user) public view returns (uint256) {\r\n        return userImages[_user].length;\r\n    }\r\n}",
  "sourcePath": "C:\\Users\\paulp\\OneDrive\\Desktop\\web3 image resizer\\web3-image-resizer\\contracts\\ImageResizer.sol",
  "compiler": {
    "name": "solc",
    "version": "0.8.17+commit.8df45f5f.Emscripten.clang"
  },
  "schemaVersion": "3.4.16",
  "updatedAt": "2025-05-22T08:34:12.717Z",
  "devdoc": {
    "kind": "dev",
    "methods": {},
    "version": 1
  },
  "userdoc": {
    "kind": "user",
    "methods": {},
    "version": 1
  }
}